S0190000466972652053797374656D20416C61726D2E73726563D3
S11300000C942A000C94A4050C94AC050C94D6050D
S11300100C9447000C9447000C947A060C94280620
S11300200C9451060C94FF050C9447000C94470063
S11300300C9447000C94A3060C9447000C94CC0633
S11300400C9447000C9447000C9447000C94470010
S11300500C94470011241FBECFE5D8E0DEBFCDBF0E
S113006011E0A0E6B0E0E6EBFEE002C005900D92E0
S1130070A634B107D9F721E0A6E4B1E001C01D928E
S1130080A835B207E1F70E942C020C9459070C948E
S1130090000061E08CE00E94F70461E08DE00E94C2
S11300A0F70461E08EE00E94F70461E08FE00C94B5
S11300B0F704DF92EF92FF920F931F93CF93DF9396
S11300C090E8E92E90E0F92ECCE0D4E560E08C2FA6
S11300D00E94F70400E010E08AE1D82ED00E8D2DA6
S11300E00E947805811109C0F701E00FF11FD0814A
S11300F08D2D0E9478058823D9F30F5F1F4F04309C
S1130100110551F761E08C2F0E94F704CF5F84E062
S1130110E80EF11CC031D1F68D2FDF91CF911F91E4
S11301200F91FF90EF90DF900895CF93C82F60E078
S113013081E00E94F7046C2F661F6627661F86E025
S11301400E94F704C6FB662760F985E00E94F70465
S1130150C5FB662760F984E00E94F704C4FB6627A8
S113016060F983E00E94F70461E082E00E94F704F2
S11301708FEC97E00197F1F700C0000060E082E0A7
S11301800E94F7048FEC97E00197F1F700C000009C
S1130190C3FB662760F986E00E94F704C2FB66276A
S11301A060F985E00E94F704C1FB662760F984E0EA
S11301B00E94F7046C2F617083E00E94F70461E0F1
S11301C082E00E94F7048FEC97E00197F1F700C0FA
S11301D0000060E082E00E94F7048FEC97E0019752
S11301E0F1F700C00000CF910895CF93C82F61E0CC
S11301F081E00E94F7046C2F661F6627661F86E065
S11302000E94F704C6FB662760F985E00E94F704A4
S1130210C5FB662760F984E00E94F704C4FB6627E7
S113022060F983E00E94F70461E082E00E94F70431
S11302308FEC97E00197F1F700C0000060E082E0E6
S11302400E94F7048FEC97E00197F1F700C00000DB
S1130250C3FB662760F986E00E94F704C2FB6627A9
S113026060F985E00E94F704C1FB662760F984E029
S11302700E94F7046C2F617083E00E94F70461E030
S113028082E00E94F7048FEC97E00197F1F700C039
S1130290000060E082E00E94F7048FEC97E0019791
S11302A0F1F700C00000CF9108952FE788E391E0B3
S11302B0215080409040E1F700C0000082E00E949D
S11302C0950088E20E9495008CE00E94950081E0F0
S11302D00E9495008FEC97E00197F1F700C00000B1
S11302E086E00C9495000C94F5000F931F93CF9324
S11302F08C01C0E0F801EC0FF11D8081C81720F4D7
S11303000E94F500CF5FF6CFCF911F910F91089512
S1130310811103C0862F806804C0813021F480ECF1
S1130320860F0C949500089581E00E9495008FEC4F
S113033097E00197F1F700C0000008954F925F9293
S11303406F927F92AF92BF92CF92DF92EF92FF9221
S11303501F93CF93DF93CDB7DEB72A970FB6F894E8
S1130360DEBF0FBECDBF6B017C0161157105810538
S11303709105B1F480E32A960FB6F894DEBF0FBE60
S1130380CDBFDF91CF911F91FF90EF90DF90CF9081
S1130390BF90AF907F906F905F904F900C94F5005A
S11303A097FF0BC0F094E094D094C094C11CD11C6E
S11303B0E11CF11C8DE20E94F50010E09AE0492E48
S11303C0512C612C712CAA24A394B12CAC0EBD1E0B
S11303D0A10EB11CC701B601A30192010E942B0713
S11303E0605DF50160831F5F69017A01C114D10466
S11303F0E104F10441F7112341F0FE01E10FF11D85
S113040080810E94F5001150F6CF2A960FB6F89419
S1130410DEBF0FBECDBFDF91CF911F91FF90EF9054
S1130420DF90CF90BF90AF907F906F905F904F9090
S1130430089587E00E94FC039C01A4E6B0E00E94BA
S11304404A072FEF33E040E050E00E940907822F73
S1130450089580E00C9408040E9419040E94550138
S113046066E081E00E94E7030E94490081E090E099
S11304700E949D05E82ED0E0C0E0912CF12C8AE08A
S1130480C82ED12C0E942902B6010E94F5068B01C8
S11304900E941902882EA82EB12C0E94590083367E
S11304A009F066C00E94940160E080E00E94880127
S11304B080E990E00E94750164E081E00E94880177
S11304C08FE990E00E947501911052C00E9459007A
S11304D0E82E24E58217D1F380ED8E0D8A3020F5C5
S11304E060E081E00E9488016D2F80E00E94880115
S11304F08E2D0E947301CC0F8C2F880F880FC80F8C
S1130500C053CE0DDF5F6D2F80E00E94880186ED21
S113051090E00E94750160E081E00E94880186ED10
S113052090E00E947501D2CF8DE3E812CFCF6C2FFB
S113053081E090E00E94950581E090E00E949D0595
S1130540E82E0E94940162E080E00E9488018AEA19
S113055090E00E9475019FEF23ED80E391502040CD
S11305608040E1F700C000000E9494019924939414
S11305700333110508F073C092E3A916B10448F5DA
S1130580F11027C081E090E00E949D05E82E60E014
S113059080E00E948801B80180E090E00E949E0102
S11305A087EB90E00E94750168E080E00E9488017A
S11305B08DEB90E00E94750160E081E00E9488016B
S11305C08EED90E00E9475010233110509F05ACFB7
S11305D00BC00233110519F021E0F2123BC093E382
S11305E0A916B10408F04ECFA99A60E080E00E94F9
S11305F08801B80180E090E00E949E0187EB90E0C2
S11306000E94750168E080E00E94880182EC90E01D
S11306100E94750181EE90E00E94750160E081E026
S11306200E948801682D70E080E090E00E949E01A5
S1130630C8018E97049750F4A99A60E081E00E9463
S113064088018BED90E00E94750106C00D32110502
S113065018F4A998F12C16CFFF24F39413CF83E355
S1130660A816B10408F2A998A89AAA9AAD9A60E0CB
S113067080E00E948801B80180E090E00E949E0121
S113068087EC90E00E94750168E080E00E94880198
S11306908CEC90E00E94750160E080E00E9488018B
S11306A081ED90E00E94750160E080E00E94880185
S11306B086EE90E00E94750160E081E00E9488016E
S11306C081ED90E00E9475010E945900182F843535
S11306D0D9F36D2F80E00E948801612F70E080E0E3
S11306E090E00E949E0183ED90E00E94750180EDF0
S11306F0810F8A30E0F460E081E00E94880181ED9E
S113070090E00E9475016D2F80E00E9488018AE2CA
S11307100E94730186ED90E00E947501CC0F8C2F2E
S1130720880F880FC80FC053C10FDF5FCDCF1D33B3
S113073059F6EC1236C00E94190290E082339105FA
S1130740F8F460E080E00E94880185ED90E00E946A
S1130750750160E081E00E94880186EF90E00E94CC
S11307607501AD98A898AA9860E081E00E9488017C
S113077081ED90E00E947501A998CE2DD0E082CE43
S1130780C29711F160E080E00E9488018DE091E061
S11307900E94750160E081E00E94880182E291E09C
S11307A00EC060E080E00E94880185ED90E00E9428
S11307B0750160E081E00E94880182E391E00E947B
S11307C07501D0E0C0E080CFCE2DD0E07DCF813068
S11307D041F020F0823039F43F9A04C03F983E98AB
S11307E002C03F983E9A86B1887F86B986B1677009
S11307F0682B66B9379A089597B1907E97B997B1E7
S1130800892B87B9369A3699FECF84B195B108956C
S11308100E94FC039C01A8E8B3E10E944A07DC01A2
S1130820CB012AE0B695A795979587952A95D1F798
S11308300895E0E6F0E040E081E090E05191342F4B
S1130840369536953695242F2770513009F443C0D8
S113085020F0523009F482C0C5C0323001F1333087
S113086061F1313071F05AB3BC0102C0660F771FD9
S11308702A95E2F79B01352F322B3ABB3BB32095E7
S11308803DC057B3BC0102C0660F771F2A95E2F73B
S11308909B01352F322B37BB38B320953EC054B360
S11308A0BC0102C0660F771F2A95E2F79B01352F22
S11308B0322B34BB35B320953FC051B3BC0102C0C9
S11308C0660F771F2A95E2F79B01352F322B31BB38
S11308D032B3209541C0323011F1333081F13130DF
S11308E079F05AB3BC0102C0660F771F2A95E2F76C
S11308F09B012095352F32233ABB3BB3232342C0BF
S113090057B3BC0102C0660F771F2A95E2F79B011B
S11309102095352F322337BB38B3232343C054B338
S1130920BC0102C0660F771F2A95E2F79B01209550
S1130930352F322334BB35B3232325BB53C051B3E6
S1130940BC0102C0660F771F2A95E2F79B01209530
S1130950352F322331BB32B3232343C0323021F14C
S1130960333089F1313081F05AB3BC0102C0660FD3
S1130970771F2A95E2F79B01362F309535233ABB32
S11309803BB3232B2BBB2EC057B3BC0102C0660F55
S1130990771F2A95E2F79B01362F3095352337BB15
S11309A038B3232B28BB1EC054B3BC0102C0660F4E
S11309B0771F2A95E2F79B01362F3095352334BBF8
S11309C035B3232BBACF51B3BC0102C0660F771FD6
S11309D02A95E2F79B01362F3095352331BB32B38C
S11309E0232B22BB4F5F403209F028CF0895982F64
S11309F096959695969587706130C1F5913091F0F2
S1130A0028F09230D9F0933029F108954BB321E0C6
S1130A1030E0B90102C0660F771F8A95E2F7CB0177
S1130A20842B3AC048B321E030E0B90102C0660F1C
S1130A30771F8A95E2F7CB01842B3CC045B321E0B4
S1130A4030E0B90102C0660F771F8A95E2F7CB0147
S1130A50842B3EC042B321E030E0B90102C0660FEE
S1130A60771F8A95E2F7CB01842B40C061113FC008
S1130A709130A1F028F09230F9F0933059F10895B3
S1130A804BB321E030E0B90102C0660F771F8A95AD
S1130A90E2F7CB01809584238BBB089548B321E012
S1130AA030E0B90102C0660F771F8A95E2F7CB01E7
S1130AB08095842388BB089545B321E030E0B901D3
S1130AC002C0660F771F8A95E2F7CB0180958423D5
S1130AD085BB089542B321E030E0B90102C0660F3E
S1130AE0771F8A95E2F7CB018095842382BB089512
S1130AF0282F2770869586958695813049F030F0A9
S1130B00823041F0833079F480B305C089B303C0E7
S1130B1086B301C083B390E002C0959587952A956A
S1130B20E2F78170089580E00895E199FECF9FBBBC
S1130B308EBB6DBBE29AE19A0895E199FECF9FBB0B
S1130B408EBBE09A8DB30895E0914A01F0914B0178
S1130B50309709F00995089578941F920F920FB673
S1130B600F9211242F933F934F935F936F937F932F
S1130B708F939F93AF93BF93EF93FF93E0914801BB
S1130B80F0914901309709F00995FF91EF91BF91D8
S1130B90AF919F918F917F916F915F914F913F9111
S1130BA02F910F900FBE0F901F9018951F920F92C8
S1130BB00FB60F9211242F933F934F935F936F932C
S1130BC07F938F939F93AF93BF93EF93FF93E091A2
S1130BD04601F0914701309709F00995FF91EF9193
S1130BE0BF91AF919F918F917F916F915F914F9141
S1130BF03F912F910F900FBE0F901F9018951F9249
S1130C000F920FB60F9211242F933F934F935F933C
S1130C106F937F938F939F93AF93BF93EF93FF93C0
S1130C20E0915201F0915301309709F00995FF9139
S1130C30EF91BF91AF919F918F917F916F915F9150
S1130C404F913F912F910F900FBE0F901F901895C9
S1130C501F920F920FB60F9211242F933F934F932D
S1130C605F936F937F938F939F93AF93BF93EF9310
S1130C70FF93E0915001F0915101309709F00995EB
S1130C80FF91EF91BF91AF919F918F917F916F9160
S1130C905F914F913F912F910F900FBE0F901F9036
S1130CA018951F920F920FB60F9211242F933F9312
S1130CB04F935F936F937F938F939F93AF93BF9360
S1130CC0EF93FF93E0914E01F0914F01309709F0BB
S1130CD00995FF91EF91BF91AF919F918F917F9172
S1130CE06F915F914F913F912F910F900FBE0F9095
S1130CF01F9018951F920F920FB60F9211242F93E5
S1130D003F934F935F936F937F938F939F93AF938F
S1130D10BF93EF93FF93E0914C01F0914D01309715
S1130D2009F00995FF91EF91BF91AF919F918F9138
S1130D307F916F915F914F913F912F910F900FBED3
S1130D400F901F9018951F920F920FB60F921124B7
S1130D502F933F934F935F936F937F938F939F93BF
S1130D60AF93BF93EF93FF93E0915601F091570136
S1130D70309709F00995FF91EF91BF91AF919F9141
S1130D808F917F916F915F914F913F912F910F9030
S1130D900FBE0F901F9018951F920F920FB60F92CF
S1130DA011242F933F934F935F936F937F938F936C
S1130DB09F93AF93BF93EF93FF93E0915401F0910E
S1130DC05501309709F00995FF91EF91BF91AF91CB
S1130DD09F918F917F916F915F914F913F912F914F
S1130DE00F900FBE0F901F901895AA1BBB1B51E1CB
S1130DF007C0AA1FBB1FA617B70710F0A61BB70B87
S1130E00881F991F5A95A9F780959095BC01CD012B
S1130E100895A1E21A2EAA1BBB1BFD010DC0AA1F37
S1130E20BB1FEE1FFF1FA217B307E407F50720F04F
S1130E30A21BB30BE40BF50B661F771F881F991FCA
S1130E401A9469F760957095809590959B01AC0113
S1130E50BD01CF010895052E97FB1EF400940E9456
S1130E60420757FD07D00E94090707FC03D04EF440
S1130E700C94420750954095309521953F4F4F4F24
S1130E805F4F089590958095709561957F4F8F4F32
S1130E909F4F0895A29FB001B39FC001A39F700DFF
S1130EA0811D1124911DB29F700D811D1124911D6E
S1090EB00895F894FFCF41
S1130EB60100000000000001000000000000000026
S1130EC6000000000000000000020202020200000E
S1130ED637383941343536423132334563303D464D
S1130EE620454E54455220544845204E45570050FF
S1130EF6415353574F52443A200050415353574F8E
S1130F065244205345540043202020200046494E95
S1130F164500484541540043202020004649524597
S1130F2600202020202020202020202020202020D7
S1130F36202020202000454E544552205041535332
S1130F46574F52443A002020202020434F52524506
S1130F56435420202020202020202020002020432D
S1130F664F525245435420425554202020202020DD
S1130F762000202020534D4F4B453E353021202064
S1130F862000202020202057524F4E47202020208A
S1090F96202020200000D1
S9030000FC
