S01000004C6561726E696E672E73726563E4
S11300000C942A000C949E050C94A6050C94D0051F
S11300100C9447000C9447000C9474060C9422062C
S11300200C944B060C94F9050C9447000C9447006F
S11300300C9447000C949D060C9447000C94C6063F
S11300400C9447000C9447000C9447000C94470010
S11300500C94470011241FBECFE5D8E0DEBFCDBF0E
S113006011E0A0E6B0E0E0ECFEE002C005900D92E5
S1130070A033B107D9F721E0A0E3B1E001C01D929C
S1130080A234B207E1F70E9422020C945E070C949A
S1130090000061E08CE00E94000561E08DE00E94B8
S11300A0000561E08EE00E94000561E08FE00C94A1
S11300B00005DF92EF92FF920F931F93CF93DF938C
S11300C090E8E92E90E0F92ECCE0D4E560E08C2FA6
S11300D00E94000500E010E08AE1D82ED00E8D2D9C
S11300E00E948105811109C0F701E00FF11FD08141
S11300F08D2D0E9481058823D9F30F5F1F4F043093
S1130100110551F761E08C2F0E940005CF5F84E058
S1130110E80EF11CC031D1F68D2FDF91CF911F91E4
S11301200F91FF90EF90DF900895CF93C82F60E078
S113013081E00E9400056C2F661F6627661F86E01B
S11301400E940005C6FB662760F985E00E94000551
S1130150C5FB662760F984E00E940005C4FB66279E
S113016060F983E00E94000561E082E00E940005DE
S11301708FEC97E00197F1F700C0000060E082E0A7
S11301800E9400058FEC97E00197F1F700C0000092
S1130190C3FB662760F986E00E940005C2FB662760
S11301A060F985E00E940005C1FB662760F984E0E0
S11301B00E9400056C2F617083E00E94000561E0DD
S11301C082E00E9400058FEC97E00197F1F700C0F0
S11301D0000060E082E00E9400058FEC97E0019748
S11301E0F1F700C00000CF910895CF93C82F61E0CC
S11301F081E00E9400056C2F661F6627661F86E05B
S11302000E940005C6FB662760F985E00E94000590
S1130210C5FB662760F984E00E940005C4FB6627DD
S113022060F983E00E94000561E082E00E9400051D
S11302308FEC97E00197F1F700C0000060E082E0E6
S11302400E9400058FEC97E00197F1F700C00000D1
S1130250C3FB662760F986E00E940005C2FB66279F
S113026060F985E00E940005C1FB662760F984E01F
S11302700E9400056C2F617083E00E94000561E01C
S113028082E00E9400058FEC97E00197F1F700C02F
S1130290000060E082E00E9400058FEC97E0019787
S11302A0F1F700C00000CF9108952FE788E391E0B3
S11302B0215080409040E1F700C0000082E00E949D
S11302C0950088E20E9495008CE00E94950081E0F0
S11302D00E9495008FEC97E00197F1F700C00000B1
S11302E086E00C9495000C94F5000F931F93CF9324
S11302F08C01C0E0F801EC0FF11D8081C81720F4D7
S11303000E94F500CF5FF6CFCF911F910F91089512
S1130310811103C0862F806804C0813021F480ECF1
S1130320860F0C94950008954F925F926F927F927E
S1130330AF92BF92CF92DF92EF92FF921F93CF932F
S1130340DF93CDB7DEB72A970FB6F894DEBF0FBEA2
S1130350CDBF6B017C016115710581059105B1F477
S113036080E32A960FB6F894DEBF0FBECDBFDF91AF
S1130370CF911F91FF90EF90DF90CF90BF90AF90FF
S11303807F906F905F904F900C94F50097FF0BC097
S1130390F094E094D094C094C11CD11CE11CF11CD5
S11303A08DE20E94F50010E09AE0492E512C612C58
S11303B0712CAA24A394B12CAC0EBD1EA10EB11CA9
S11303C0C701B601A30192010E942507605DF501F2
S11303D060831F5F69017A01C114D104E104F1044F
S11303E041F7112341F0FE01E10FF11D80810E94CC
S11303F0F5001150F6CF2A960FB6F894DEBF0FBE63
S1130400CDBFDF91CF911F91FF90EF90DF90CF9000
S1130410BF90AF907F906F905F904F90089587E06A
S11304200E9405049C01A4E6B0E00E9444072FEF5B
S113043033E040E050E00E940307822F089580E0FB
S11304400C941104CF93DF9300D000D0CDB7DEB766
S11304500E9422040E94550166E081E00E94F0039C
S11304600E9449001B82C12CD12C76018BE7882E77
S1130470912CA12CB12C19821C820E941F028C0188
S11304800E940F02382E0E945900282E84E5281657
S1130490A1F320ED220D2A83422C512C612C712CC6
S11304A080E3481A5108610871082981211156C056
S11304B083E6281218C060E080E00E94880180E989
S11304C090E00E94750160E080E00E94880185EA66
S11304D090E00E94750163E081E00E94880186ED4E
S11304E090E00E9475012A812A3018F560E081E0CD
S11304F00E94880180E990E00E9475016B8180E090
S11305000E9488018AE20E94730185E990E00E94BA
S11305107501AAE0B0E0A70196010E945307730198
S11305206201C60ED71EE81EF91E8B818F5F8B8376
S1130530BFCF2DE32212BCCF63E080E00E9488018C
S11305408FEA90E00E94750160E087E00E948801D4
S113055088EB90E00E94750146015701C8016AE0EA
S113056070E00E94EF068B01832D90E063337105E8
S113057008F06EC08233910530F52C81211123C01F
S113058060E080E00E948801B80180E090E00E9471
S113059094018CEB90E00E94750168E080E00E9479
S11305A0880181EC90E00E94750160E081E00E9486
S11305B088018DE990E00E9475010233110559F01C
S11305C021E029835ACF0233110519F02C812130FF
S11305D0B9F7C397A8F7A99A60E080E00E94880160
S11305E0B80180E090E00E9494018CEB90E00E94BE
S11305F0750168E080E00E94880186EC90E00E942A
S1130600750180EA90E00E94750160E081E00E943B
S11306108801632D70E080E090E00E949401C8019D
S11306208E97049760F4A99A60E081E00E948801A3
S11306308AE990E00E94750181E08C83C1CF0D327C
S1130640110518F4A9981C82BBCF21E02C83B8CFE4
S1130650C39708F2A998A89AAA9AAD9A60E080E094
S11306600E948801B80180E090E00E9494018CEB24
S113067090E00E94750168E080E00E9488018BECA4
S113068090E00E94750160E080E00E94880180E9AA
S113069090E00E94750160E080E00E94880180ED96
S11306A090E00E94750160E081E00E94880180E989
S11306B090E00E9475010E945900182F8435D9F3E7
S11306C06B8180E00E948801412E512C612C712C99
S11306D0C301B2010E94940182E990E00E94750175
S11306E080ED810F8A3040F560E081E00E9488014E
S11306F080E990E00E9475016B8180E00E9488018E
S11307008AE20E94730185E990E00E947501AAE0E3
S1130710B0E0A70196010E9453076B017C0120E31E
S1130720C21AD108E108F108C40CD51CE61CF71C58
S11307308B818F5F8B83BFCF1D3309F0BCCFC8146F
S1130740D904EA04FB04A9F50E940F0290E0823365
S11307509105F0F460E080E00E94880184E990E073
S11307600E94750160E081E00E94880180EE90E0C3
S11307700E947501AD98A898AA9860E081E00E9453
S1130780880180E990E00E947501A9981B8218CF26
S1130790C29721F160E080E00E94880187EF90E039
S11307A00E94750160E081E00E9488018CE091E084
S11307B00EC060E080E00E94880184E990E00E941D
S11307C0750160E081E00E9488018CE191E00E9463
S11307D075011B82C12CD12C76016DCF1B826BCF8E
S11307E0813041F020F0823039F43F9A04C03F98C0
S11307F03E9802C03F983E9A86B1887F86B986B1FA
S11308006770682B66B9379A089597B1907E97B947
S113081097B1892B87B9369A3699FECF84B195B1B1
S113082008950E9405049C01A8E8B3E10E944407CE
S1130830DC01CB012AE0B695A795979587952A9573
S1130840D1F70895E0E6F0E040E081E090E05191D6
S1130850342F369536953695242F2770513009F468
S113086043C020F0523009F482C0C5C0323001F1D7
S1130870333061F1313071F05AB3BC0102C0660FFC
S1130880771F2A95E2F79B01352F322B3ABB3BB3F6
S113089020953DC057B3BC0102C0660F771F2A954F
S11308A0E2F79B01352F322B37BB38B320953EC07E
S11308B054B3BC0102C0660F771F2A95E2F79B016F
S11308C0352F322B34BB35B320953FC051B3BC0117
S11308D002C0660F771F2A95E2F79B01352F322B52
S11308E031BB32B3209541C0323011F1333081F144
S11308F0313079F05AB3BC0102C0660F771F2A95D4
S1130900E2F79B012095352F32233ABB3BB32323D7
S113091042C057B3BC0102C0660F771F2A95E2F7A5
S11309209B012095352F322337BB38B3232343C093
S113093054B3BC0102C0660F771F2A95E2F79B01EE
S11309402095352F322334BB35B3232325BB53C025
S113095051B3BC0102C0660F771F2A95E2F79B01D1
S11309602095352F322331BB32B3232343C0323099
S113097021F1333089F1313081F05AB3BC0102C026
S1130980660F771F2A95E2F79B01362F30953523A2
S11309903ABB3BB3232B2BBB2EC057B3BC0102C0C5
S11309A0660F771F2A95E2F79B01362F3095352382
S11309B037BB38B3232B28BB1EC054B3BC0102C0C1
S11309C0660F771F2A95E2F79B01362F3095352362
S11309D034BB35B3232BBACF51B3BC0102C0660F6D
S11309E0771F2A95E2F79B01362F3095352331BBCB
S11309F032B3232B22BB4F5F403209F028CF089536
S1130A00982F96959695969587706130C1F591309B
S1130A1091F028F09230D9F0933029F108954BB336
S1130A2021E030E0B90102C0660F771F8A95E2F732
S1130A30CB01842B3AC048B321E030E0B90102C0B5
S1130A40660F771F8A95E2F7CB01842B3CC045B330
S1130A5021E030E0B90102C0660F771F8A95E2F702
S1130A60CB01842B3EC042B321E030E0B90102C087
S1130A70660F771F8A95E2F7CB01842B40C0611182
S1130A803FC09130A1F028F09230F9F0933059F141
S1130A9008954BB321E030E0B90102C0660F771F1F
S1130AA08A95E2F7CB01809584238BBB089548B3E4
S1130AB021E030E0B90102C0660F771F8A95E2F7A2
S1130AC0CB018095842388BB089545B321E030E0B1
S1130AD0B90102C0660F771F8A95E2F7CB018095B2
S1130AE0842385BB089542B321E030E0B90102C0FC
S1130AF0660F771F8A95E2F7CB018095842382BB2A
S1130B000895282F2770869586958695813049F01B
S1130B1030F0823041F0833079F480B305C089B37A
S1130B2003C086B301C083B390E002C09595879556
S1130B302A95E2F78170089580E00895E0913401E8
S1130B40F0913501309709F00995089578941F9232
S1130B500F920FB60F9211242F933F934F935F93ED
S1130B606F937F938F939F93AF93BF93EF93FF9371
S1130B70E0913201F0913301309709F00995FF912A
S1130B80EF91BF91AF919F918F917F916F915F9101
S1130B904F913F912F910F900FBE0F901F9018957A
S1130BA01F920F920FB60F9211242F933F934F93DE
S1130BB05F936F937F938F939F93AF93BF93EF93C1
S1130BC0FF93E0913001F0913101309709F00995DC
S1130BD0FF91EF91BF91AF919F918F917F916F9111
S1130BE05F914F913F912F910F900FBE0F901F90E7
S1130BF018951F920F920FB60F9211242F933F93C3
S1130C004F935F936F937F938F939F93AF93BF9310
S1130C10EF93FF93E0913C01F0913D01309709F08F
S1130C200995FF91EF91BF91AF919F918F917F9122
S1130C306F915F914F913F912F910F900FBE0F9045
S1130C401F9018951F920F920FB60F9211242F9395
S1130C503F934F935F936F937F938F939F93AF9340
S1130C60BF93EF93FF93E0913A01F0913B013097EA
S1130C7009F00995FF91EF91BF91AF919F918F91E9
S1130C807F916F915F914F913F912F910F900FBE84
S1130C900F901F9018951F920F920FB60F92112468
S1130CA02F933F934F935F936F937F938F939F9370
S1130CB0AF93BF93EF93FF93E0913801F091390123
S1130CC0309709F00995FF91EF91BF91AF919F91F2
S1130CD08F917F916F915F914F913F912F910F90E1
S1130CE00FBE0F901F9018951F920F920FB60F9280
S1130CF011242F933F934F935F936F937F938F931D
S1130D009F93AF93BF93EF93FF93E0913601F091DC
S1130D103701309709F00995FF91EF91BF91AF9199
S1130D209F918F917F916F915F914F913F912F91FF
S1130D300F900FBE0F901F9018951F920F920FB631
S1130D400F9211242F933F934F935F936F937F934D
S1130D508F939F93AF93BF93EF93FF93E0914001E1
S1130D60F0914101309709F00995FF91EF91BF91FE
S1130D70AF919F918F917F916F915F914F913F912F
S1130D802F910F900FBE0F901F9018951F920F92E6
S1130D900FB60F9211242F933F934F935F936F934A
S1130DA07F938F939F93AF93BF93EF93FF93E091C0
S1130DB03E01F0913F01309709F00995FF91EF91C1
S1130DC0BF91AF919F918F917F916F915F914F915F
S1130DD03F912F910F900FBE0F901F901895AA1B53
S1130DE0BB1B51E107C0AA1FBB1FA617B70710F012
S1130DF0A61BB70B881F991F5A95A9F78095909544
S1130E00BC01CD010895A1E21A2EAA1BBB1BFD0152
S1130E100DC0AA1FBB1FEE1FFF1FA217B307E407D5
S1130E20F50720F0A21BB30BE40BF50B661F771F2D
S1130E30881F991F1A9469F760957095809590950D
S1130E409B01AC01BD01CF010895052E97FB1EF453
S1130E5000940E943C0757FD07D00E94030707FC3B
S1130E6003D04EF40C943C07509540953095219551
S1130E703F4F4F4F5F4F08959095809570956195C2
S1130E807F4F8F4F9F4F0895A29FB001B39FC00122
S1130E90A39F700D811D1124911DB29F700D811DA2
S1130EA01124911D08950E944407A59F900DB49F9D
S1130EB0900DA49F800D911D11240895F894FFCFE7
S1130EC0010000000000000100000000000000001C
S1130ED00000000000000000000202020202000004
S1130EE037383941343536423132334563303D4643
S1130EF020202020202020202020202020202020EE
S1130F002020202000454E544552204E4557005085
S1130F10415353574F52440053455400432020201B
S1130F200046494E45004845415400464952450053
S1130F30454E5445522050415353574F52443A0062
S1130F402020202020434F5252454354202020206B
S1130F50202020202020002020434F52524543547B
S1130F6020425554202020202020200020202053DF
S1130F704D4F4B453E35302120202000202020209D
S1130F802057524F4E4720202020202020200000B0
S9030000FC
