S0190000466972652053797374656D20416C61726D2E73726563D3
S11300000C942A000C94A2050C94AA050C94D40513
S11300100C9447000C9447000C9478060C94260624
S11300200C944F060C94FD050C9447000C94470067
S11300300C9447000C94A1060C9447000C94CA0637
S11300400C9447000C9447000C9447000C94470010
S11300500C94470011241FBECFE5D8E0DEBFCDBF0E
S113006011E0A0E6B0E0EAE8FEE002C005900D92DF
S1130070A831B107D9F721E0A8E1B1E001C01D9290
S1130080AA32B207E1F70E940D020C9443070C94C4
S1130090000061E08CE00E94E50461E08DE00E94D4
S11300A0E50461E08EE00E94E50461E08FE00E94D7
S11300B0E5040895FF920F931F93CF93DF930F2EC0
S11300C0F4E5FF2EF02D10E027C00CE0010F60E0F6
S11300D0802F0E94E504D0E018C0CAE1CD0F8C2F18
S11300E00E946A05811110C0E12FF0E0EE0FFF1F9E
S11300F0EE0FFF1FE058FF4FED0FF11DF0808C2F26
S11301000E946A058823D9F3DF5FD43030F361E0BD
S1130110802F0E94E5041F5F1430B8F28F2DDF9109
S1130120CF911F910F91FF900895CF93C82F60E056
S113013081E00E94E5046C2F661F6627661F86E037
S11301400E94E504C6FB662760F985E00E94E50489
S1130150C5FB662760F984E00E94E504C4FB6627BA
S113016060F983E00E94E50461E082E00E94E50416
S11301708FEC97E00197F1F700C0000060E082E0A7
S11301800E94E5048FEC97E00197F1F700C00000AE
S1130190C3FB662760F986E00E94E504C2FB66277C
S11301A060F985E00E94E504C1FB662760F984E0FC
S11301B00E94E5046C2F617083E00E94E50461E015
S11301C082E00E94E5048FEC97E00197F1F700C00C
S11301D0000060E082E00E94E5048FEC97E0019764
S11301E0F1F700C00000CF910895CF93C82F61E0CC
S11301F081E00E94E5046C2F661F6627661F86E077
S11302000E94E504C6FB662760F985E00E94E504C8
S1130210C5FB662760F984E00E94E504C4FB6627F9
S113022060F983E00E94E50461E082E00E94E50455
S11302308FEC97E00197F1F700C0000060E082E0E6
S11302400E94E5048FEC97E00197F1F700C00000ED
S1130250C3FB662760F986E00E94E504C2FB6627BB
S113026060F985E00E94E504C1FB662760F984E03B
S11302700E94E5046C2F617083E00E94E50461E054
S113028082E00E94E5048FEC97E00197F1F700C04B
S1130290000060E082E00E94E5048FEC97E00197A3
S11302A0F1F700C00000CF9108952FE788E391E0B3
S11302B0215080409040E1F700C0000082E00E949D
S11302C0950088E20E9495008CE00E94950081E0F0
S11302D00E9495008FEC97E00197F1F700C00000B1
S11302E086E00E94950008950E94F50008950F93FA
S11302F01F93CF938C01C0E003C00E947401CF5FB1
S1130300F801EC0FF11D8081C817B8F3CF911F914C
S11303100F910895811105C0862F80680E94950071
S11303200895813021F480EC860F0E949500089591
S1130330CF92DF92EF92FF921F93CF93DF93CDB7CB
S1130340DEB72A970FB6F894DEBF0FBECDBF6B01A0
S11303507C01611571058105910521F480E30E94FA
S1130360740139C099235CF4F094E094D094C0945F
S1130370C11CD11CE11CF11C8DE20E94740110E02F
S113038015C0C701B6012AE030E040E050E00E9409
S11303901507E1E0F0E0EC0FFD1FE10FF11D605DDA
S11303A060831F5FC22ED32EE42EF52EC114D10418
S11303B0E104F10431F70DC0E12FF0E0319781E061
S11303C090E08C0F9D1FE80FF91F80810E9474013B
S11303D011501111F1CF2A960FB6F894DEBF0FBE5B
S11303E0CDBFDF91CF911F91FF90EF90DF90CF9021
S11303F0089580E00E94B7039C01A4E6B0E00E9447
S113040034072FEF33E040E050E00E94F306822FE0
S1130410089587E00E94C50308950E94D5040E94B0
S1130420550166E081E00E9492030E944900F12C8C
S1130430E12CD0E0C12C0E9409029C01ADECBCEC83
S11304400E9434078C011695079516950795169505
S113045007950E94F901C82FA82EB12C033311056A
S113046028F582E3A816B10408F5C1101FC0D11104
S11304701DC060E080E00E948A01B80180E090E045
S11304800E94980180E990E00E94770168E080E092
S11304900E948A0185E990E00E94770160E081E092
S11304A00E948A0181EB90E00E94770102331105DA
S11304B018F481E0C81249C083E3A816B10408F017
S11304C044C0D11142C085B3826085BB60E080E046
S11304D00E948A01B80180E090E00E94980180E9BE
S11304E090E00E94770168E080E00E948A018AE936
S11304F090E00E94770184EB90E00E94770160E035
S113050081E00E948A016C2F70E080E090E00E94FC
S11305109801C8018E97049770F485B3826085BBF7
S113052060E081E00E948A018EEA90E00E947701F7
S1130530CC24C3940AC00D32110528F485B38D7FF1
S113054085BBC12C02C0CC24C3940333110528F00D
S113055083E3A816B10408F0D3C0D13009F06BCFFF
S1130560D1C085B38D7F85BB85B3816085BB85B3E1
S1130570846085BB85B3806285BB60E080E00E94B7
S11305808A01B80180E090E00E94980180E990E03F
S11305900E94770168E080E00E948A018FE990E080
S11305A00E94770160E080E00E948A0184EA90E082
S11305B00E94770160E080E00E948A0189EB90E06C
S11305C00E94770160E081E00E948A0184EA90E061
S11305D00E947701D1E090C00E945A00C82F843550
S11305E009F48AC06F2D80E00E948A016C2F70E0AC
S11305F080E090E00E94980186EA90E00E947701F2
S113060080ED8C0F8A3000F560E081E00E948A0161
S113061084EA90E00E9477016F2D80E00E948A01B5
S11306208AE20E94740189EA90E00E947701EE0C4C
S11306308E2D880F880FE80ECE0D0F2EF0EDEF2EC5
S1130640F02DEC0EF39458C0CD3309F055C08BE770
S1130650E81239C00E94F90190E082339105F0F468
S113066060E080E00E948A0188EA90E00E947701BD
S113067060E081E00E948A0189EC90E00E947701A9
S113068085B38F7D85BB85B38E7F85BB85B38B7F1B
S113069085BBF12CDD24D394D0E02EC0C39748F160
S11306A060E080E00E948A0180EE90E00E94770181
S11306B060E081E00E948A0185EF90E00E9477016A
S11306C0F12CE12C19C08BE7E816A9F060E080E07A
S11306D00E948A0188EA90E00E94770160E081E04C
S11306E00E948A0185E091E00E947701F12CE12CBF
S11306F003C0F12C01C0F12CD13009F46DCF03C03B
S1130700D12C01C0D12CDD2009F42BCF60E081E095
S11307100E948A0184EA90E00E94770185B38D7F6C
S113072085BB89CE813059F018F0823079F014C03D
S113073087B18F7787B987B18F7B87B90DC087B1B0
S11307408F7787B987B1806487B906C087B180681D
S113075087B987B1806487B986B1887F86B96770A5
S113076086B1682B66B986B1806886B9089597B159
S1130770907E97B997B1892B87B986B1806486B981
S11307803699FECF84B195B108950E94B7039C01B8
S1130790A8E8B3E10E943407DC01CB01072E7AE01C
S11307A0B695A795979587957A95D1F7702D089565
S11307B0982F9695969596958770613009F455C053
S11307C020F0623009F4A1C008959130C1F028F0FE
S11307D0923039F19330B9F108954AB321E030E011
S11307E0B90102C0660F771F8A95E2F7CB01942FF7
S11307F0982B9ABB9BB3809589238BBB089547B3F1
S113080021E030E0B90102C0660F771F8A95E2F754
S1130810CB01942F982B97BB98B38095892388BBE1
S1130820089544B321E030E0B90102C0660F771F98
S11308308A95E2F7CB01942F982B94BB95B38095BE
S1130840892385BB089541B321E030E0B90102C09A
S1130850660F771F8A95E2F7CB01942F982B91BBF3
S113086092B38095892382BB08959130C1F028F01A
S1130870923039F19330B9F108954AB321E030E070
S1130880B90102C0660F771F8A95E2F7CB01809504
S1130890942F98239ABB9BB389238BBB089547B3AA
S11308A021E030E0B90102C0660F771F8A95E2F7B4
S11308B0CB018095942F982397BB98B3892388BB49
S11308C0089544B321E030E0B90102C0660F771FF8
S11308D08A95E2F7CB018095942F982394BB95B326
S11308E0892385BB089541B321E030E0B90102C0FA
S11308F0660F771F8A95E2F7CB018095942F982392
S113090091BB92B3892382BB08959130C1F028F042
S1130910923039F19330B9F108954AB321E030E0CF
S1130920B90102C0660F771F8A95E2F7CB01962FB3
S1130930909594239ABB9BB3892B8BBB089547B3A3
S113094021E030E0B90102C0660F771F8A95E2F713
S1130950CB01962F9095942397BB98B3892B88BB92
S1130960089544B321E030E0B90102C0660F771F57
S11309708A95E2F7CB01962F9095942394BB95B377
S1130980892B85BB089541B321E030E0B90102C051
S1130990660F771F8A95E2F7CB01962F90959423E3
S11309A091BB92B3892B82BB0895CF93C0E009C059
S11309B0EC2FF0E0E05AFF4F60818C2F0E94D803A7
S11309C0CF5FC032A8F3CF910895982F969596954E
S11309D0969587706130E1F5913099F028F0923066
S11309E0E9F0933041F108954BB321E030E0B901CF
S11309F002C0660F771F8A95E2F7CB01842B8BBB6D
S1130A00089548B321E030E0B90102C0660F771FB2
S1130A108A95E2F7CB01842B88BB089545B321E086
S1130A2030E0B90102C0660F771F8A95E2F7CB0167
S1130A30842B85BB089542B321E030E0B90102C0A4
S1130A40660F771F8A95E2F7CB01842B82BB08954A
S1130A5061113FC09130A1F028F09230F9F0933049
S1130A6059F108954BB321E030E0B90102C0660F9B
S1130A70771F8A95E2F7CB01809584238BBB089579
S1130A8048B321E030E0B90102C0660F771F8A95B0
S1130A90E2F7CB018095842388BB089545B321E018
S1130AA030E0B90102C0660F771F8A95E2F7CB01E7
S1130AB08095842385BB089542B321E030E0B901D9
S1130AC002C0660F771F8A95E2F7CB0180958423D5
S1130AD082BB0895982F969596959695482F4770C2
S1130AE0913081F028F09230B9F09330F9F028C0B9
S1130AF099B3892F90E002C0959587954A95E2F7BE
S1130B008170089526B330E0C90102C09595879598
S1130B104A95E2F78170089523B330E0C90102C019
S1130B20959587954A95E2F78170089520B330E052
S1130B30C90102C0959587954A95E2F78170089599
S1130B4080E00895E0911C01F0911D01309709F0B7
S1130B500995089578941F920F920FB60F9211245D
S1130B602F933F934F935F936F937F938F939F93B1
S1130B70AF93BF93EF93FF93E0911A01F0911B01A0
S1130B80309709F00995FF91EF91BF91AF919F9133
S1130B908F917F916F915F914F913F912F910F9022
S1130BA00FBE0F901F9018951F920F920FB60F92C1
S1130BB011242F933F934F935F936F937F938F935E
S1130BC09F93AF93BF93EF93FF93E0911801F0913C
S1130BD01901309709F00995FF91EF91BF91AF91F9
S1130BE09F918F917F916F915F914F913F912F9141
S1130BF00F900FBE0F901F9018951F920F920FB673
S1130C000F9211242F933F934F935F936F937F938E
S1130C108F939F93AF93BF93EF93FF93E09124013E
S1130C20F0912501309709F00995FF91EF91BF915B
S1130C30AF919F918F917F916F915F914F913F9170
S1130C402F910F900FBE0F901F9018951F920F9227
S1130C500FB60F9211242F933F934F935F936F938B
S1130C607F938F939F93AF93BF93EF93FF93E09101
S1130C702201F0912301309709F00995FF91EF913A
S1130C80BF91AF919F918F917F916F915F914F91A0
S1130C903F912F910F900FBE0F901F9018951F92A8
S1130CA00F920FB60F9211242F933F934F935F939C
S1130CB06F937F938F939F93AF93BF93EF93FF9320
S1130CC0E0912001F0912101309709F00995FF91FD
S1130CD0EF91BF91AF919F918F917F916F915F91B0
S1130CE04F913F912F910F900FBE0F901F90189529
S1130CF01F920F920FB60F9211242F933F934F938D
S1130D005F936F937F938F939F93AF93BF93EF936F
S1130D10FF93E0911E01F0911F01309709F00995AE
S1130D20FF91EF91BF91AF919F918F917F916F91BF
S1130D305F914F913F912F910F900FBE0F901F9095
S1130D4018951F920F920FB60F9211242F933F9371
S1130D504F935F936F937F938F939F93AF93BF93BF
S1130D60EF93FF93E0912801F0912901309709F066
S1130D700995FF91EF91BF91AF919F918F917F91D1
S1130D806F915F914F913F912F910F900FBE0F90F4
S1130D901F9018951F920F920FB60F9211242F9344
S1130DA03F934F935F936F937F938F939F93AF93EF
S1130DB0BF93EF93FF93E0912601F09127013097C1
S1130DC009F00995FF91EF91BF91AF919F918F9198
S1130DD07F916F915F914F913F912F910F900FBE33
S1130DE00F901F901895A1E21A2EAA1BBB1BFD01A0
S1130DF00DC0AA1FBB1FEE1FFF1FA217B307E407F6
S1130E00F50720F0A21BB30BE40BF50B661F771F4D
S1130E10881F991F1A9469F760957095809590952D
S1130E209B01AC01BD01CF010895052E97FB1EF473
S1130E3000940E942C0757FD07D00E94F30607FC7C
S1130E4003D04EF40C942C07509540953095219581
S1130E503F4F4F4F5F4F08959095809570956195E2
S1130E607F4F8F4F9F4F0895A29FB001B39FC00142
S1130E70A39F700D811D1124911DB29F700D811DC2
S10D0E801124911D0895F894FFCF8A
S1130E8A0100000000000001000000000000000052
S1130E9A000000000000000000020202020200003A
S1130EAA37383941343536423132334563303D4679
S1130EBA432020200046494E4500484541540046F7
S1130ECA49524500202020202020202020202020B4
S1130EDA202020202020202000454E544552205016
S1130EEA415353574F52443A002020202020434F65
S1130EFA5252454354202020202020202020200024
S1130F0A2020434F52524543542042555420202016
S1130F1A2020202000202020534D4F4B453E3530C1
S1130F2A2120202000202020202057524F4E4720E5
S10B0F3A2020202020202000CB
S9030000FC
