S01000004C6561726E696E672E73726563E4
S11300000C942A000C9431060C9439060C94630663
S11300100C9447000C9447000C9407070C94B50605
S11300200C94DE060C948C060C9447000C94470048
S11300300C9447000C9430070C9447000C94590717
S11300400C9447000C9447000C9447000C94470010
S11300500C94470011241FBECFE5D8E0DEBFCDBF0E
S113006011E0A0E6B0E0E8EAFFE002C005900D92DE
S1130070A033B107D9F721E0A0E3B1E001C01D929C
S1130080A234B207E1F70E940D020C94D2070C943B
S1130090000061E08CE00E94740561E08DE00E9444
S11300A0740561E08EE00E94740561E08FE00E94B7
S11300B074050895FF920F931F93CF93DF930F2E30
S11300C0F4E5FF2EF02D10E027C00CE0010F60E0F6
S11300D0802F0E947405D0E018C0CAE1CD0F8C2F88
S11300E00E94F905811110C0E12FF0E0EE0FFF1F0F
S11300F0EE0FFF1FE058FF4FED0FF11DF0808C2F26
S11301000E94F9058823D9F3DF5FD43030F361E02E
S1130110802F0E9474051F5F1430B8F28F2DDF9179
S1130120CF911F910F91FF900895CF93C82F60E056
S113013081E00E9474056C2F661F6627661F86E0A7
S11301400E947405C6FB662760F985E00E94740569
S1130150C5FB662760F984E00E947405C4FB66272A
S113016060F983E00E94740561E082E00E947405F6
S11301708FEC97E00197F1F700C0000060E082E0A7
S11301800E9474058FEC97E00197F1F700C000001E
S1130190C3FB662760F986E00E947405C2FB6627EC
S11301A060F985E00E947405C1FB662760F984E06C
S11301B00E9474056C2F617083E00E94740561E0F5
S11301C082E00E9474058FEC97E00197F1F700C07C
S11301D0000060E082E00E9474058FEC97E00197D4
S11301E0F1F700C00000CF910895CF93C82F61E0CC
S11301F081E00E9474056C2F661F6627661F86E0E7
S11302000E947405C6FB662760F985E00E947405A8
S1130210C5FB662760F984E00E947405C4FB662769
S113022060F983E00E94740561E082E00E94740535
S11302308FEC97E00197F1F700C0000060E082E0E6
S11302400E9474058FEC97E00197F1F700C000005D
S1130250C3FB662760F986E00E947405C2FB66272B
S113026060F985E00E947405C1FB662760F984E0AB
S11302700E9474056C2F617083E00E94740561E034
S113028082E00E9474058FEC97E00197F1F700C0BB
S1130290000060E082E00E9474058FEC97E0019713
S11302A0F1F700C00000CF9108952FE788E391E0B3
S11302B0215080409040E1F700C0000082E00E949D
S11302C0950088E20E9495008CE00E94950081E0F0
S11302D00E9495008FEC97E00197F1F700C00000B1
S11302E086E00E94950008950E94F50008950F93FA
S11302F01F93CF938C01C0E003C00E947401CF5FB1
S1130300F801EC0FF11D8081C817B8F3CF911F914C
S11303100F910895811105C0862F80680E94950071
S11303200895813021F480EC860F0E949500089591
S1130330CF92DF92EF92FF921F93CF93DF93CDB7CB
S1130340DEB72A970FB6F894DEBF0FBECDBF6B01A0
S11303507C01611571058105910521F480E30E94FA
S1130360740139C099235CF4F094E094D094C0945F
S1130370C11CD11CE11CF11C8DE20E94740110E02F
S113038015C0C701B6012AE030E040E050E00E9409
S1130390A407E1E0F0E0EC0FFD1FE10FF11D605D4B
S11303A060831F5FC22ED32EE42EF52EC114D10418
S11303B0E104F10431F70DC0E12FF0E0319781E061
S11303C090E08C0F9D1FE80FF91F80810E9474013B
S11303D011501111F1CF2A960FB6F894DEBF0FBE5B
S11303E0CDBFDF91CF911F91FF90EF90DF90CF9021
S11303F0089580E00E9446049C01A4E6B0E00E94B7
S1130400C3072FEF33E040E050E00E948207822FC1
S1130410089587E00E94540408950E9464050E9490
S1130420550166E081E00E9421040E944900D12C1C
S1130430812C912C54010F2EFBE74F2E512C612C53
S1130440712CF02DC12CD0E0312C0E9409029C01AA
S1130450ADECBCEC0E94C3078C011695079516956C
S11304600795169507950E94F901282EE82EF12C80
S11304700E945A00C82F843541F364C0C336C1F4C6
S113048060E080E00E948A0180E990E00E947701A8
S113049060E080E00E948A0185EA90E00E94770192
S11304A063E081E00E948A0186ED90E00E9477017A
S11304B080ED8C0F8A3080F560E081E00E948A0133
S11304C080E990E00E9477016D2D80E00E948A010E
S11304D08AE20E94740185E990E00E947701880C09
S11304E0991CAA1CBB1CD501C401880F991FAA1F03
S11304F0BB1F880F991FAA1FBB1F880E991EAA1E17
S1130500BB1E8C0E911CA11CB11C80E3881A91089F
S1130510A108B108D39416C0CD33A1F463E080E000
S11305200E948A018FEA90E00E94770160E087E0F0
S11305300E948A0188EB90E00E9477012401350132
S1130540CC24C394CC2009F499CF0333110528F5A6
S113055082E3E816F10408F531101FC0D1111DC063
S113056060E080E00E948A01B80180E090E00E948F
S113057098018CEB90E00E94770168E080E00E9493
S11305808A0181EC90E00E94770160E081E00E94A2
S11305908A018DE990E00E9477010233110518F475
S11305A081E0381249C083E3E816F10408F044C03E
S11305B0D11142C085B3826085BB60E080E00E94B7
S11305C08A01B80180E090E00E9498018CEB90E0F1
S11305D00E94770168E080E00E948A0186EC90E046
S11305E00E94770180EA90E00E94770160E081E058
S11305F00E948A01622D70E080E090E00E949801E0
S1130600C8018E97049770F485B3826085BB60E05F
S113061081E00E948A018AE990E00E9477013324F4
S113062033940AC00D32110528F485B38D7F85BB40
S1130630312C02C0332433940333110528F083E3AF
S1130640E816F10408F0EBC0D13009F0FECEE9C0A1
S113065085B38D7F85BB85B3816085BB85B384609D
S113066085BB85B3806285BB60E080E00E948A011F
S1130670B80180E090E00E9498018CEB90E00E9429
S1130680770168E080E00E948A018BEC90E00E9490
S1130690770160E080E00E948A0180E990E00E9496
S11306A0770160E080E00E948A0180ED90E00E9482
S11306B0770160E081E00E948A0180E990E00E9475
S11306C07701D1E0A8C00E945A00C82F843509F4EC
S11306D0A2C06D2D80E00E948A016C2F70E080E042
S11306E090E00E94980182E990E00E94770180EDF9
S11306F08C0F8A3080F560E081E00E948A0180E9F5
S113070090E00E9477016D2D80E00E948A018AE2C8
S11307100E94740185E990E00E947701880C991C7D
S1130720AA1CBB1CD501C401880F991FAA1FBB1F9B
S1130730880F991FAA1FBB1F880E991EAA1EBB1ED5
S11307408C0E911CA11CB11C80E3881A9108A1088D
S1130750B108D39460C0CD3309F05DC04814590486
S11307606A047B04D9F50E94F90190E08233910573
S1130770F0F460E080E00E948A0184E990E00E9445
S1130780770160E081E00E948A0180EE90E00E949F
S1130790770185B38F7D85BB85B38E7F85BB85B39C
S11307A08B7F85BBD12CFF24F394D0E034C0C39756
S11307B078F160E080E00E948A0187EF90E00E9477
S11307C0770160E081E00E948A018CE091E00E9460
S11307D07701D12C812C912C54011DC0481459044B
S11307E06A047B04B9F060E080E00E948A0184E935
S11307F090E00E94770160E081E00E948A018CE130
S113080091E00E947701D12C812C912C540103C0DA
S1130810D12C01C0D12CD13009F455CF03C0F12C17
S113082001C0F12CFF2009F413CF60E081E00E94A5
S11308308A0180E990E00E94770185B38D7F85BBB2
S113084004CE813059F018F0823079F014C087B1A9
S11308508F7787B987B18F7B87B90DC087B18F77C1
S113086087B987B1806487B906C087B1806887B9C2
S113087087B1806487B986B1887F86B9677086B18D
S1130880682B66B986B1806886B9089597B1907E61
S113089097B997B1892B87B986B1806486B936999F
S11308A0FECF84B195B108950E9446049C01A8E846
S11308B0B3E10E94C307DC01CB01072E7AE0B695B1
S11308C0A795979587957A95D1F7702D0895982FC8
S11308D09695969596958770613009F455C020F0E9
S11308E0623009F4A1C008959130C1F028F092302B
S11308F039F19330B9F108954AB321E030E0B901F8
S113090002C0660F771F8A95E2F7CB01942F982BCC
S11309109ABB9BB3809589238BBB089547B321E091
S113092030E0B90102C0660F771F8A95E2F7CB0168
S1130930942F982B97BB98B38095892388BB0895EF
S113094044B321E030E0B90102C0660F771F8A95F5
S1130950E2F7CB01942F982B94BB95B38095892310
S113096085BB089541B321E030E0B90102C0660FB0
S1130970771F8A95E2F7CB01942F982B91BB92B302
S11309808095892382BB08959130C1F028F092307C
S113099039F19330B9F108954AB321E030E0B90157
S11309A002C0660F771F8A95E2F7CB018095942FDA
S11309B098239ABB9BB389238BBB089547B321E04B
S11309C030E0B90102C0660F771F8A95E2F7CB01C8
S11309D08095942F982397BB98B3892388BB089557
S11309E044B321E030E0B90102C0660F771F8A9555
S11309F0E2F7CB018095942F982394BB95B3892378
S1130A0085BB089541B321E030E0B90102C0660F0F
S1130A10771F8A95E2F7CB018095942F982391BB99
S1130A2092B3892382BB08959130C1F028F09230AB
S1130A3039F19330B9F108954AB321E030E0B901B6
S1130A4002C0660F771F8A95E2F7CB01962F909527
S1130A5094239ABB9BB3892B8BBB089547B321E0A6
S1130A6030E0B90102C0660F771F8A95E2F7CB0127
S1130A70962F9095942397BB98B3892B88BB0895A0
S1130A8044B321E030E0B90102C0660F771F8A95B4
S1130A90E2F7CB01962F9095942394BB95B3892BC1
S1130AA085BB089541B321E030E0B90102C0660F6F
S1130AB0771F8A95E2F7CB01962F9095942391BBEB
S1130AC092B3892B82BB0895CF93C0E009C0EC2F69
S1130AD0F0E0E05AFF4F60818C2F0E946704CF5FE3
S1130AE0C032A8F3CF910895982F96959695969530
S1130AF087706130E1F5913099F028F09230E9F097
S1130B00933041F108954BB321E030E0B90102C0C4
S1130B10660F771F8A95E2F7CB01842B8BBB089570
S1130B2048B321E030E0B90102C0660F771F8A950F
S1130B30E2F7CB01842B88BB089545B321E030E074
S1130B40B90102C0660F771F8A95E2F7CB01842BA7
S1130B5085BB089542B321E030E0B90102C0660FBD
S1130B60771F8A95E2F7CB01842B82BB089561112C
S1130B703FC09130A1F028F09230F9F0933059F150
S1130B8008954BB321E030E0B90102C0660F771F2E
S1130B908A95E2F7CB01809584238BBB089548B3F3
S1130BA021E030E0B90102C0660F771F8A95E2F7B1
S1130BB0CB018095842388BB089545B321E030E0C0
S1130BC0B90102C0660F771F8A95E2F7CB018095C1
S1130BD0842385BB089542B321E030E0B90102C00B
S1130BE0660F771F8A95E2F7CB018095842382BB39
S1130BF00895982F969596959695482F477091301D
S1130C0081F028F09230B9F09330F9F028C099B30C
S1130C10892F90E002C0959587954A95E2F78170F7
S1130C20089526B330E0C90102C0959587954A9589
S1130C30E2F78170089523B330E0C90102C09595AD
S1130C4087954A95E2F78170089520B330E0C90191
S1130C5002C0959587954A95E2F78170089580E0E2
S1130C600895E0913401F0913501309709F0099528
S1130C70089578941F920F920FB60F9211242F9318
S1130C803F934F935F936F937F938F939F93AF9310
S1130C90BF93EF93FF93E0913201F09133013097CA
S1130CA009F00995FF91EF91BF91AF919F918F91B9
S1130CB07F916F915F914F913F912F910F900FBE54
S1130CC00F901F9018951F920F920FB60F92112438
S1130CD02F933F934F935F936F937F938F939F9340
S1130CE0AF93BF93EF93FF93E0913001F091310103
S1130CF0309709F00995FF91EF91BF91AF919F91C2
S1130D008F917F916F915F914F913F912F910F90B0
S1130D100FBE0F901F9018951F920F920FB60F924F
S1130D2011242F933F934F935F936F937F938F93EC
S1130D309F93AF93BF93EF93FF93E0913C01F091A6
S1130D403D01309709F00995FF91EF91BF91AF9163
S1130D509F918F917F916F915F914F913F912F91CF
S1130D600F900FBE0F901F9018951F920F920FB601
S1130D700F9211242F933F934F935F936F937F931D
S1130D808F939F93AF93BF93EF93FF93E0913A01B7
S1130D90F0913B01309709F00995FF91EF91BF91D4
S1130DA0AF919F918F917F916F915F914F913F91FF
S1130DB02F910F900FBE0F901F9018951F920F92B6
S1130DC00FB60F9211242F933F934F935F936F931A
S1130DD07F938F939F93AF93BF93EF93FF93E09190
S1130DE03801F0913901309709F00995FF91EF919D
S1130DF0BF91AF919F918F917F916F915F914F912F
S1130E003F912F910F900FBE0F901F9018951F9236
S1130E100F920FB60F9211242F933F934F935F932A
S1130E206F937F938F939F93AF93BF93EF93FF93AE
S1130E30E0913601F0913701309709F00995FF915F
S1130E40EF91BF91AF919F918F917F916F915F913E
S1130E504F913F912F910F900FBE0F901F901895B7
S1130E601F920F920FB60F9211242F933F934F931B
S1130E705F936F937F938F939F93AF93BF93EF93FE
S1130E80FF93E0914001F0914101309709F00995F9
S1130E90FF91EF91BF91AF919F918F917F916F914E
S1130EA05F914F913F912F910F900FBE0F901F9024
S1130EB018951F920F920FB60F9211242F933F9300
S1130EC04F935F936F937F938F939F93AF93BF934E
S1130ED0EF93FF93E0913E01F0913F01309709F0C9
S1130EE00995FF91EF91BF91AF919F918F917F9160
S1130EF06F915F914F913F912F910F900FBE0F9083
S1130F001F901895A1E21A2EAA1BBB1BFD010DC050
S1130F10AA1FBB1FEE1FFF1FA217B307E407F507A5
S1130F2020F0A21BB30BE40BF50B661F771F881F81
S1130F30991F1A9469F760957095809590959B0117
S1130F40AC01BD01CF010895052E97FB1EF400945A
S1130F500E94BB0757FD07D00E94820707FC03D0FD
S1130F604EF40C94BB0750954095309521953F4F16
S1130F704F4F5F4F089590958095709561957F4F81
S1130F808F4F9F4F0895A29FB001B39FC001A39FAD
S1130F90700D811D1124911DB29F700D811D1124AE
S10B0FA0911D0895F894FFCFA0
S1130FA80100000000000001000000000000000033
S1130FB8000000000000000000020202020200001B
S1130FC837383941343536423132334563303D465A
S1130FD82020202020202020202020202020202005
S1130FE82020202000454E544552204E455700509D
S1130FF8415353574F524400534554004320202033
S11310080046494E4500484541540046495245006A
S1131018454E5445522050415353574F52443A0079
S11310282020202020434F52524543542020202082
S1131038202020202020002020434F525245435492
S113104820425554202020202020200020202053F6
S11310584D4F4B453E3530212020200020202020B4
S11310682057524F4E4720202020202020200000C7
S9030000FC
